:100000000C9459000C9481000C9481000C94810094
:100010000C9481000C9481000C9481000C9481005C
:100020000C9481000C9481000C9481000C9481004C
:100030000C9481000C9481000C9481000C9481003C
:100040000C9402110C9481000C9472110C944C11BC
:100050000C9481000C9481000C9481000C9481001C
:100060000C9481000C948100000000002300260005
:10007000290004040404040404040202020202022B
:10008000030303030303010204081020408001025C
:1000900004081020010204081020000000080002DB
:1000A00001000003040700000000000000005612D9
:1000B000D01811241FBECFEFD8E0DEBFCDBF24E0A3
:1000C000A8ECB1E001C01D92A13FB207E1F711E039
:1000D000A0E0B1E0EAEEF7E302C005900D92A83C83
:1000E000B107D9F710E0C8E5D0E004C02197FE01C0
:1000F0000E94E219C735D107C9F70E94D8140C94A1
:10010000E81B0C9400000F931F93CF93DF93EC0137
:100110008B01E881F9810480F581E02D09951B832D
:100120000A8388E090E09F878E87E881F9810684C2
:10013000F785E02DCE010995009701F19C0150E073
:1001400040E060E472E48FE090E00E94A8198091A2
:10015000E3049091E404A091E504B091E6048217D1
:100160009307A407B50710F4DA01C9018093E304EB
:100170009093E404A093E504B093E604CE01DF91EC
:10018000CF911F910F9108958E3008F08E50877097
:10019000806480937C0080917A00806480937A00F0
:1001A00080917A0086FDFCCF809178009091790053
:1001B00008953FB7F8948091210390912203A09174
:1001C0002303B091240326B5A89B05C02F3F19F047
:1001D0000196A11DB11D3FBFBA2FA92F982F8827C7
:1001E000BC01CD01620F711D811D911D42E0660FA2
:1001F000771F881F991F4A95D1F708958F929F9274
:10020000AF92BF92CF92DF92EF92FF924B015C01CF
:100210000E94D9006B017C010E94D9006C197D09F4
:100220008E099F09683E734081059105A8F321E07E
:10023000821A9108A108B10888EEC80E83E0D81E82
:10024000E11CF11C81149104A104B10429F7FF9071
:10025000EF90DF90CF90BF90AF909F908F900895D8
:10026000AF92BF92CF92DF92EF92FF920F931F93C4
:10027000CF93DF936C017B018B01040F151FEB0102
:100280005E01AE18BF08C017D10759F06991D601B9
:10029000ED91FC910190F081E02DC6010995892B2B
:1002A00079F7C501DF91CF911F910F91FF90EF90EA
:1002B000DF90CF90BF90AF900895FC01538D448D97
:1002C000252F30E0842F90E0821B930B541710F001
:1002D000CF96089501970895FC01918D828D98170E
:1002E00061F0A28DAE0FBF2FB11D5D968C91928DE6
:1002F0009F5F9F73928F90E008958FEF9FEF089517
:100300002FB7F8948091250390912603A09127039D
:10031000B09128032FBF8093310390933203A093B1
:100320003303B093340389E293E00E946C0197FF9A
:1003300026C02FB7F8948091250390912603A091B1
:100340002703B09128032FBF40913103509132030E
:100350006091330370913403841B950BA60BB70B8C
:1003600040912D0350912E0360912F037091300323
:1003700084179507A607B707B0F28FEF9FEF089590
:10038000FC01918D828D981731F0828DE80FF11D5F
:10039000858D90E008958FEF9FEF0895FC01918D7A
:1003A000228D892F90E0805C9F4F821B91098F7373
:1003B0009927089589E293E00E94CE0121E0892BDC
:1003C00009F420E0822F089580E090E0892B29F045
:1003D0000E94DA0181110C9400000895FC01A48DA3
:1003E000A80FB92FB11DA35ABF4F2C91848D90E057
:1003F00001968F739927848FA689B7892C93A0893A
:10040000B1898C91837080648C93938D848D9813C3
:1004100006C00288F389E02D80818F7D8083089556
:10042000EF92FF920F931F93CF93DF93EC0181E044
:10043000888F9B8D8C8D98131AC0E889F9898081EB
:1004400085FF15C09FB7F894EE89FF896083E8891E
:10045000F98980818370806480839FBF81E090E010
:10046000DF91CF911F910F91FF90EF900895F62E9D
:100470000B8D10E00F5F1F4F0F731127E02E8C8D37
:100480008E110CC00FB607FCFACFE889F98980817C
:1004900085FFF5CFCE010E94EE01F1CFEB8DEC0F81
:1004A000FD2FF11DE35AFF4FF0829FB7F8940B8F99
:1004B000EA89FB8980818062CFCFCF93DF93EC0103
:1004C000888D8823B9F0AA89BB89E889F9898C913C
:1004D00085FD03C0808186FD0DC00FB607FCF7CFF8
:1004E0008C9185FFF2CF808185FFEDCFCE010E94F8
:1004F000EE01E9CFDF91CF9108950F931F93CF9332
:10050000DF932091CB012F5F322F37703093CB01D7
:1005100020FF2BC020E831FD2064347009F02062F8
:10052000205FFC01EC01239600E011E06785662363
:1005300029F070E0C8010E9494196F5F6187822FD3
:10054000869F080E80E0811D1124811110C0168243
:10055000662311F0615061873196EC17FD0731F782
:10056000DF91CF911F910F91089520E0D4CF81505A
:100570008683EECFCF93DF93EC010E94D90079837D
:100580006883DF91CF910895CF93DF93EC010E94B0
:10059000D90028813981621B730B6A307105B8F369
:1005A000DF91CF9108954F925F927F928F929F92A9
:1005B000AF92BF92CF92DF92EF92FF920F931F9371
:1005C000CF93DF93EB0146962C010E94C402F8946E
:1005D0008A819B81181619060CF0CDC1E881F9813A
:1005E00065B1862E689483F835B1377F35B9DA84E2
:1005F0008F81ED2CE81A8E2DEF824C85042E000C95
:10060000550BAA81BB817889FF84E9887F5FF394C9
:10061000E3949E819884B984AB841181C12C2C2DE4
:100620000C2D6C2D6181112788946111680F08F4DD
:100630006FEF8195889470FD160F1795889471FD62
:10064000160F1795889472FD160F1795889473FDF1
:10065000160F1795889474FD160F1795889475FDDD
:10066000160F1795889476FD160F1795889477FDC9
:10067000160F17958894262F7111212F8D0D122F8B
:10068000002C85B800C017FF35B9608122278894F7
:1006900000C000C0002C35B96111690F00C0002CEA
:1006A00085B800C016FF35B908F46FEF91958894AE
:1006B00000C000C0002C35B9F0FC260F00C0002C93
:1006C00085B800C015FF35B927958894F1FC260F31
:1006D00000C000C0002C35B92795889400C0002CBC
:1006E00085B800C014FF35B9F2FC260F2795889411
:1006F00000C000C0002C35B9F3FC260F00C0002C50
:1007000085B800C013FF35B927958894F4FC260FEF
:1007100000C000C0002C35B92795889400C0002C7B
:1007200085B800C012FF35B9F5FC260F27958894CF
:1007300000C000C0002C35B9F6FC260F00C0002C0C
:1007400085B800C011FF35B927958894F7FC260FAE
:1007500000C000C0002C35B92795889400C0002C3B
:1007600085B800C010FF35B9162FF110122F9B0D60
:1007700000C000C0002C35B900C000C0002C85B8F6
:1007800000C017FF35B962812227889400C000C0DD
:10079000002C35B96111690D00C0002C85B800C06E
:1007A00016FF35B908F46FEFE40FF51F00C000C065
:1007B000002C35B9E0FC260F00C0002C85B800C025
:1007C00015FF35B927958894E1FC260F00C000C0BD
:1007D000002C35B92795889400C0002C85B800C03E
:1007E00014FF35B9E2FC260F2795889400C000C09D
:1007F000002C35B9E3FC260F00C0002C85B800C0E2
:1008000013FF35B927958894E4FC260F00C000C07B
:10081000002C35B92795889400C0002C85B800C0FD
:1008200012FF35B9E5FC260F2795889400C000C05B
:10083000002C35B9E6FC260F00C0002C85B800C09E
:1008400011FF35B927958894E7FC260F00C000C03A
:10085000002C35B92795889400C0002C85B800C0BD
:1008600010FF35B9162FE110122F919400C000C06F
:10087000002C35B99A0C00C000C085B800C017FF25
:1008800035B961812227889400C000C0002C35B999
:100890006111680F00C0002C85B800C016FF35B983
:1008A00008F46FEF8195889400C000C0002C35B922
:1008B00070FD260F00C0002C85B800C015FF35B9AB
:1008C0002795889471FD260F00C000C0002C35B913
:1008D0002795889400C0002C85B800C014FF35B956
:1008E00072FD260F2795889400C000C0002C35B9F2
:1008F00073FD260F00C0002C85B800C013FF35B96A
:100900002795889474FD260F00C000C0002C35B9CF
:100910002795889400C0002C85B800C012FF35B917
:1009200075FD260F2795889400C000C0002C35B9AE
:1009300076FD260F00C0002C85B800C011FF35B928
:100940002795889477FD260F00C000C0002C35B98C
:100950002795889400C0002C85B800C010FF35B9D9
:10096000162F7111122F8D0D00C000C0002C35B94B
:10097000119709F086CEEA81FB812EE130E0DF019C
:100980000E94C71930E020E0A901AAE9EA9F0E0EF3
:10099000411DFA9F400D511D11244F0F511D7B0128
:1009A0008C01E40EF51E011D111DB801A701493E81
:1009B00003E050076105710508F435C0485E5340F7
:1009C0006109710982E076956795579547958A95F3
:1009D000D1F7C90127E0429F040E811D529F800D6F
:1009E000911D1124850F911D2091CA0130E0420F05
:1009F000531F840F951F409125035091260360914A
:100A0000270370912803292F3327420F531F611D9D
:100A1000711D409325035093260360932703709321
:100A200028038093CA017894C201DF91CF911F916E
:100A30000F91FF90EF90DF90CF90BF90AF909F907D
:100A40008F907F905F904F900C94BA0280E991E074
:100A50000895239A08954F925F927F928F929F926A
:100A6000AF92BF92CF92DF92EF92FF920F931F93BC
:100A7000CF93DF93EB0146962C010E94C402F894B9
:100A80008A819B81181619060CF0CDC1E881F98185
:100A900065B1862E689482F835B13B7F35B9DA842A
:100AA0008F81ED2CE81A8E2DEF824C85042E000CE0
:100AB000550BAA81BB817889FF84E9887F5FF39415
:100AC000E3949E819884B984AB841181C12C2C2D30
:100AD0000C2D6C2D6181112788946111680F08F429
:100AE0006FEF8195889470FD160F1795889471FDAE
:100AF000160F1795889472FD160F1795889473FD3D
:100B0000160F1795889474FD160F1795889475FD28
:100B1000160F1795889476FD160F1795889477FD14
:100B2000160F17958894262F7111212F8D0D122FD6
:100B3000002C85B800C017FF35B960812227889442
:100B400000C000C0002C35B96111690F00C0002C35
:100B500085B800C016FF35B908F46FEF91958894F9
:100B600000C000C0002C35B9F0FC260F00C0002CDE
:100B700085B800C015FF35B927958894F1FC260F7C
:100B800000C000C0002C35B92795889400C0002C07
:100B900085B800C014FF35B9F2FC260F279588945C
:100BA00000C000C0002C35B9F3FC260F00C0002C9B
:100BB00085B800C013FF35B927958894F4FC260F3B
:100BC00000C000C0002C35B92795889400C0002CC7
:100BD00085B800C012FF35B9F5FC260F279588941B
:100BE00000C000C0002C35B9F6FC260F00C0002C58
:100BF00085B800C011FF35B927958894F7FC260FFA
:100C000000C000C0002C35B92795889400C0002C86
:100C100085B800C010FF35B9162FF110122F9B0DAB
:100C200000C000C0002C35B900C000C0002C85B841
:100C300000C017FF35B962812227889400C000C028
:100C4000002C35B96111690D00C0002C85B800C0B9
:100C500016FF35B908F46FEFE40FF51F00C000C0B0
:100C6000002C35B9E0FC260F00C0002C85B800C070
:100C700015FF35B927958894E1FC260F00C000C008
:100C8000002C35B92795889400C0002C85B800C089
:100C900014FF35B9E2FC260F2795889400C000C0E8
:100CA000002C35B9E3FC260F00C0002C85B800C02D
:100CB00013FF35B927958894E4FC260F00C000C0C7
:100CC000002C35B92795889400C0002C85B800C049
:100CD00012FF35B9E5FC260F2795889400C000C0A7
:100CE000002C35B9E6FC260F00C0002C85B800C0EA
:100CF00011FF35B927958894E7FC260F00C000C086
:100D0000002C35B92795889400C0002C85B800C008
:100D100010FF35B9162FE110122F919400C000C0BA
:100D2000002C35B99A0C00C000C085B800C017FF70
:100D300035B961812227889400C000C0002C35B9E4
:100D40006111680F00C0002C85B800C016FF35B9CE
:100D500008F46FEF8195889400C000C0002C35B96D
:100D600070FD260F00C0002C85B800C015FF35B9F6
:100D70002795889471FD260F00C000C0002C35B95E
:100D80002795889400C0002C85B800C014FF35B9A1
:100D900072FD260F2795889400C000C0002C35B93D
:100DA00073FD260F00C0002C85B800C013FF35B9B5
:100DB0002795889474FD260F00C000C0002C35B91B
:100DC0002795889400C0002C85B800C012FF35B963
:100DD00075FD260F2795889400C000C0002C35B9FA
:100DE00076FD260F00C0002C85B800C011FF35B974
:100DF0002795889477FD260F00C000C0002C35B9D8
:100E00002795889400C0002C85B800C010FF35B924
:100E1000162F7111122F8D0D00C000C0002C35B996
:100E2000119709F086CEEA81FB812EE130E0DF01E7
:100E30000E94C71930E020E0A901AAE9EA9F0E0E3E
:100E4000411DFA9F400D511D11244F0F511D7B0173
:100E50008C01E40EF51E011D111DB801A701493ECC
:100E600003E050076105710508F435C0485E534042
:100E70006109710982E076956795579547958A953E
:100E8000D1F7C90127E0429F040E811D529F800DBA
:100E9000911D1124850F911D2091CA0130E0420F50
:100EA000531F840F951F4091250350912603609195
:100EB000270370912803292F3327420F531F611DE9
:100EC000711D40932503509326036093270370936D
:100ED00028038093CA017894C201DF91CF911F91BA
:100EE0000F91FF90EF90DF90CF90BF90AF909F90C9
:100EF0008F907F905F904F900C94BA02229A089541
:100F00004F925F927F928F929F92AF92BF92CF92B9
:100F1000DF92EF92FF920F931F93CF93DF93EB013A
:100F200046962C010E94C402F8948A819B8118166F
:100F300019060CF0CDC1E881F98165B1862E68945F
:100F400081F835B13D7F35B9DA848F81ED2CE81A0F
:100F50008E2DEF824C85042E000C550BAA81BB818F
:100F60007889FF84E9887F5FF394E3949E81988475
:100F7000B984AB841181C12C2C2D0C2D6C2D618179
:100F8000112788946111680F08F46FEF8195889498
:100F900070FD160F1795889471FD160F179588949C
:100FA00072FD160F1795889473FD160F1795889488
:100FB00074FD160F1795889475FD160F1795889474
:100FC00076FD160F1795889477FD160F1795889460
:100FD000262F7111212F8D0D122F002C85B800C0E6
:100FE00017FF35B960812227889400C000C0002C0B
:100FF00035B96111690F00C0002C85B800C016FF1B
:1010000035B908F46FEF9195889400C000C0002CAA
:1010100035B9F0FC260F00C0002C85B800C015FFC4
:1010200035B927958894F1FC260F00C000C0002C2C
:1010300035B92795889400C0002C85B800C014FFEE
:1010400035B9F2FC260F2795889400C000C0002C0B
:1010500035B9F3FC260F00C0002C85B800C013FF83
:1010600035B927958894F4FC260F00C000C0002CE9
:1010700035B92795889400C0002C85B800C012FFB0
:1010800035B9F5FC260F2795889400C000C0002CC8
:1010900035B9F6FC260F00C0002C85B800C011FF42
:1010A00035B927958894F7FC260F00C000C0002CA6
:1010B00035B92795889400C0002C85B800C010FF72
:1010C00035B9162FF110122F9B0D00C000C0002C57
:1010D00035B900C000C0002C85B800C017FF35B975
:1010E00062812227889400C000C0002C35B96111AC
:1010F000690D00C0002C85B800C016FF35B908F492
:101100006FEFE40FF51F00C000C0002C35B9E0FC04
:10111000260F00C0002C85B800C015FF35B92795F3
:101120008894E1FC260F00C000C0002C35B927953B
:10113000889400C0002C85B800C014FF35B9E2FCCB
:10114000260F2795889400C000C0002C35B9E3FC19
:10115000260F00C0002C85B800C013FF35B92795B5
:101160008894E4FC260F00C000C0002C35B92795F8
:10117000889400C0002C85B800C012FF35B9E5FC8A
:10118000260F2795889400C000C0002C35B9E6FCD6
:10119000260F00C0002C85B800C011FF35B9279577
:1011A0008894E7FC260F00C000C0002C35B92795B5
:1011B000889400C0002C85B800C010FF35B9162FE8
:1011C000E110122F919400C000C0002C35B99A0C88
:1011D00000C000C085B800C017FF35B96181222763
:1011E000889400C000C0002C35B96111680F00C0A0
:1011F000002C85B800C016FF35B908F46FEF819553
:10120000889400C000C0002C35B970FD260F00C0C6
:10121000002C85B800C015FF35B92795889471FD5D
:10122000260F00C000C0002C35B92795889400C057
:10123000002C85B800C014FF35B972FD260F279524
:10124000889400C000C0002C35B973FD260F00C083
:10125000002C85B800C013FF35B92795889474FD1C
:10126000260F00C000C0002C35B92795889400C017
:10127000002C85B800C012FF35B975FD260F2795E3
:10128000889400C000C0002C35B976FD260F00C040
:10129000002C85B800C011FF35B92795889477FDDB
:1012A000260F00C000C0002C35B92795889400C0D7
:1012B000002C85B800C010FF35B9162F7111122F00
:1012C0008D0D00C000C0002C35B9119709F086CEF5
:1012D000EA81FB812EE130E0DF010E94C71930E096
:1012E00020E0A901AAE9EA9F0E0E411DFA9F400DD8
:1012F000511D11244F0F511D7B018C01E40EF51E71
:10130000011D111DB801A701493E03E05007610509
:10131000710508F435C0485E53406109710982E0E7
:1013200076956795579547958A95D1F7C90127E036
:10133000429F040E811D529F800D911D1124850F27
:10134000911D2091CA0130E0420F531F840F951F59
:101350004091250350912603609127037091280343
:10136000292F3327420F531F611D711D4093250301
:101370005093260360932703709328038093CA0138
:101380007894C201DF91CF911F910F91FF90EF9060
:10139000DF90CF90BF90AF909F908F907F905F90A5
:1013A0004F900C94BA02219A08954F925F927F92C7
:1013B0008F929F92AF92BF92CF92DF92EF92FF9265
:1013C0000F931F93CF93DF93EB0146962C010E945E
:1013D000C402F8948A819B81181619060CF0CDC1BD
:1013E000E881F98165B1862E689480F835B13E7F39
:1013F00035B9DA848F81ED2CE81A8E2DEF824C8579
:10140000042E000C550BAA81BB817889FF84E988E2
:101410007F5FF394E3949E819884B984AB841181B7
:10142000C12C2C2D0C2D6C2D6181112788946111FC
:10143000680F08F46FEF8195889470FD160F17956B
:10144000889471FD160F1795889472FD160F1795E5
:10145000889473FD160F1795889474FD160F1795D1
:10146000889475FD160F1795889476FD160F1795BD
:10147000889477FD160F17958894262F7111212FC8
:101480008D0D122F002C85B800C017FF35B9608173
:101490002227889400C000C0002C35B96111690F63
:1014A00000C0002C85B800C016FF35B908F46FEFF6
:1014B0009195889400C000C0002C35B9F0FC260F2F
:1014C00000C0002C85B800C015FF35B92795889459
:1014D000F1FC260F00C000C0002C35B92795889478
:1014E00000C0002C85B800C014FF35B9F2FC260FEF
:1014F0002795889400C000C0002C35B9F3FC260F56
:1015000000C0002C85B800C013FF35B9279588941A
:10151000F4FC260F00C000C0002C35B92795889434
:1015200000C0002C85B800C012FF35B9F5FC260FAD
:101530002795889400C000C0002C35B9F6FC260F12
:1015400000C0002C85B800C011FF35B927958894DC
:10155000F7FC260F00C000C0002C35B927958894F1
:1015600000C0002C85B800C010FF35B9162FF1104F
:10157000122F9B0D00C000C0002C35B900C000C068
:10158000002C85B800C017FF35B9628122278894E6
:1015900000C000C0002C35B96111690D00C0002CDD
:1015A00085B800C016FF35B908F46FEFE40FF51FDA
:1015B00000C000C0002C35B9E0FC260F00C0002C94
:1015C00085B800C015FF35B927958894E1FC260F32
:1015D00000C000C0002C35B92795889400C0002CAD
:1015E00085B800C014FF35B9E2FC260F2795889412
:1015F00000C000C0002C35B9E3FC260F00C0002C51
:1016000085B800C013FF35B927958894E4FC260FF0
:1016100000C000C0002C35B92795889400C0002C6C
:1016200085B800C012FF35B9E5FC260F27958894D0
:1016300000C000C0002C35B9E6FC260F00C0002C0D
:1016400085B800C011FF35B927958894E7FC260FAF
:1016500000C000C0002C35B92795889400C0002C2C
:1016600085B800C010FF35B9162FE110122F9194E4
:1016700000C000C0002C35B99A0C00C000C085B86D
:1016800000C017FF35B961812227889400C000C0CF
:10169000002C35B96111680F00C0002C85B800C05E
:1016A00016FF35B908F46FEF8195889400C000C02B
:1016B000002C35B970FD260F00C0002C85B800C085
:1016C00015FF35B92795889471FD260F00C000C01D
:1016D000002C35B92795889400C0002C85B800C02F
:1016E00014FF35B972FD260F2795889400C000C0FD
:1016F000002C35B973FD260F00C0002C85B800C042
:1017000013FF35B92795889474FD260F00C000C0DB
:10171000002C35B92795889400C0002C85B800C0EE
:1017200012FF35B975FD260F2795889400C000C0BB
:10173000002C35B976FD260F00C0002C85B800C0FE
:1017400011FF35B92795889477FD260F00C000C09A
:10175000002C35B92795889400C0002C85B800C0AE
:1017600010FF35B9162F7111122F8D0D00C000C05A
:10177000002C35B9119709F086CEEA81FB812EE164
:1017800030E0DF010E94C71930E020E0A901AAE99A
:10179000EA9F0E0E411DFA9F400D511D11244F0F5F
:1017A000511D7B018C01E40EF51E011D111DB801B8
:1017B000A701493E03E050076105710508F435C0F3
:1017C000485E53406109710982E0769567955795A7
:1017D00047958A95D1F7C90127E0429F040E811DE4
:1017E000529F800D911D1124850F911D2091CA01DA
:1017F00030E0420F531F840F951F409125035091F5
:1018000026036091270370912803292F3327420F65
:10181000531F611D711D4093250350932603609350
:101820002703709328038093CA017894C201DF9143
:10183000CF911F910F91FF90EF90DF90CF90BF90CD
:10184000AF909F908F907F905F904F900C94BA02D2
:10185000209A08954F925F927F928F929F92AF92BB
:10186000BF92CF92DF92EF92FF920F931F93CF938D
:10187000DF93EB0146962C010E94C402F8948A8102
:101880009B81181619060CF0CDC1E881F9816BB166
:10189000862E689487F83BB13F773BB9DA848F8115
:1018A000ED2CE81A8E2DEF824C85042E000C550B82
:1018B000AA81BB817889FF84E9887F5FF394E394F0
:1018C0009E819884B984AB841181C12C2C2D0C2D60
:1018D0006C2D6181112788946111680F08F46FEFF6
:1018E0008195889470FD160F1795889471FD160FD9
:1018F0001795889472FD160F1795889473FD160F2F
:101900001795889474FD160F1795889475FD160F1A
:101910001795889476FD160F1795889477FD160F06
:1019200017958894262F7111212F8D0D122F002CC1
:101930008BB800C017FF3BB960812227889400C094
:1019400000C0002C3BB96111690F00C0002C8BB89E
:1019500000C016FF3BB908F46FEF9195889400C062
:1019600000C0002C3BB9F0FC260F00C0002C8BB847
:1019700000C015FF3BB927958894F1FC260F00C0E5
:1019800000C0002C3BB92795889400C0002C8BB870
:1019900000C014FF3BB9F2FC260F2795889400C0C5
:1019A00000C0002C3BB9F3FC260F00C0002C8BB804
:1019B00000C013FF3BB927958894F4FC260F00C0A4
:1019C00000C0002C3BB92795889400C0002C8BB830
:1019D00000C012FF3BB9F5FC260F2795889400C084
:1019E00000C0002C3BB9F6FC260F00C0002C8BB8C1
:1019F00000C011FF3BB927958894F7FC260F00C063
:101A000000C0002C3BB92795889400C0002C8BB8EF
:101A100000C010FF3BB9162FF110122F9B0D00C014
:101A200000C0002C3BB900C000C0002C8BB800C027
:101A300017FF3BB962812227889400C000C0002CA8
:101A40003BB96111690D00C0002C8BB800C016FFB6
:101A50003BB908F46FEFE40FF51F00C000C0002C85
:101A60003BB9E0FC260F00C0002C8BB800C015FF6E
:101A70003BB927958894E1FC260F00C000C0002CDC
:101A80003BB92795889400C0002C8BB800C014FF88
:101A90003BB9E2FC260F2795889400C000C0002CBB
:101AA0003BB9E3FC260F00C0002C8BB800C013FF2D
:101AB0003BB927958894E4FC260F00C000C0002C99
:101AC0003BB92795889400C0002C8BB800C012FF4A
:101AD0003BB9E5FC260F2795889400C000C0002C78
:101AE0003BB9E6FC260F00C0002C8BB800C011FFEC
:101AF0003BB927958894E7FC260F00C000C0002C56
:101B00003BB92795889400C0002C8BB800C010FF0B
:101B10003BB9162FE110122F919400C000C0002C89
:101B20003BB99A0C00C000C08BB800C017FF3BB98E
:101B300061812227889400C000C0002C3BB961114C
:101B4000680F00C0002C8BB800C016FF3BB908F42A
:101B50006FEF8195889400C000C0002C3BB970FDE8
:101B6000260F00C0002C8BB800C015FF3BB927958D
:101B7000889471FD260F00C000C0002C3BB927954A
:101B8000889400C0002C8BB800C014FF3BB972FDD4
:101B9000260F2795889400C000C0002C3BB973FD28
:101BA000260F00C0002C8BB800C013FF3BB927954F
:101BB000889474FD260F00C000C0002C3BB9279507
:101BC000889400C0002C8BB800C012FF3BB975FD93
:101BD000260F2795889400C000C0002C3BB976FDE5
:101BE000260F00C0002C8BB800C011FF3BB9279511
:101BF000889477FD260F00C000C0002C3BB92795C4
:101C0000889400C0002C8BB800C010FF3BB9162F81
:101C10007111122F8D0D00C000C0002C3BB911971F
:101C200009F086CEEA81FB812EE130E0DF010E94DF
:101C3000C71930E020E0A901AAE9EA9F0E0E411D74
:101C4000FA9F400D511D11244F0F511D7B018C0136
:101C5000E40EF51E011D111DB801A701493E03E068
:101C600050076105710508F435C0485E53406109AD
:101C7000710982E076956795579547958A95D1F7D2
:101C8000C90127E0429F040E811D529F800D911DC6
:101C90001124850F911D2091CA0130E0420F531F7E
:101CA000840F951F409125035091260360912703CF
:101CB00070912803292F3327420F531F611D711D77
:101CC00040932503509326036093270370932803C2
:101CD0008093CA017894C201DF91CF911F910F9137
:101CE000FF90EF90DF90CF90BF90AF909F908F903C
:101CF0007F905F904F900C94BA0281E090E008953D
:101D0000579A0895AF92BF92CF92DF92EF92FF92CF
:101D10000F931F93CF93DF9300D01F92CDB7DEB701
:101D20005A0119821A821B82882361F18B01E1E03A
:101D3000F0E0E82EF12CD8012D918D012223F1F055
:101D40006F01B1E0CB1AD108D501AC0DBD1D4C918E
:101D50004423A1F030E02F5F3F4FD7010E94851947
:101D6000A42FB0E011969B01AC010E944319A1E0A1
:101D7000B0E0AC0FBD1FAC0DBD1D8C933196E430AF
:101D8000F105C9F669817A818B810F900F900F90D0
:101D9000DF91CF911F910F91FF90EF90DF90CF9047
:101DA000BF90AF9008956F927F928F92CF92DF9203
:101DB000EF92FF920F931F93CF93DF93CDB7DEB7D0
:101DC00062970FB6F894DEBF0FBECDBF8C016B01DA
:101DD0007A01822FA801475F5F4FB8016A5F7F4F8A
:101DE0000E94820E3B01882ED8011C962C91C701BF
:101DF000F7FE04C0882799278E199F09DA82C982C5
:101E00009C838B839E838D83688A798A8A8A21301A
:101E100049F5CE0101960E947D0283E08D871F86E1
:101E20001E86F7FE02C08DEF8D87D801ED91FC91E3
:101E30000088F189E02DBE016F5F7F4FC8010995D1
:101E400062960FB6F894DEBF0FBECDBFDF91CF9183
:101E50001F910F91FF90EF90DF90CF908F907F9028
:101E60006F9008951C861B861A86198618861F8215
:101E7000D4CFCF92DF92EF92FF920F931F93CF9325
:101E8000DF93CDB7DEB762970FB6F894DEBF0FBE13
:101E9000CDBF8C016B017A01822FA801475F5F4F94
:101EA000B8016A5F7F4F0E94820E9B01482FD801C4
:101EB0001C968C91DA82C982FC82EB82FE82ED82D2
:101EC000288B398B4A8B813009F5CE0101960E940F
:101ED0007D021D861F861E86D801ED91FC9100882B
:101EE000F189E02DBE016F5F7F4FC80109956296B1
:101EF0000FB6F894DEBF0FBECDBFDF91CF911F911B
:101F00000F91FF90EF90DF90CF9008951C861B8675
:101F10001A86198618861F82DCCFFC018AE091E0C0
:101F200091838083138212828FEF868387838087D9
:101F300081878287838781E08487858717861686D5
:101F400080E797E1918B808B83E090E0938B828B8D
:101F5000158A148A158214828091FC029091FD02E8
:101F6000892B21F4F093FD02E093FC02A091C801BB
:101F7000B091C901109721F01596FC93EE93149738
:101F8000F093C901E093C801089590E080E00895BE
:101F9000FC0164870895FC01848590E00895FC01AC
:101FA000868597850895362F32953F70262F2F709E
:101FB000DC01E32FEE0FE30FE80FF92FF11D608135
:101FC00071818281222309F42BC03F3011F0DF019F
:101FD00013962295207F322F3095639F060E60E086
:101FE000611D9C91929F090E90E0911D690F739F56
:101FF000070E70E0711D11969C911197929F090E2A
:1020000090E0911D790F982F939F090E90E0911DFC
:1020100012968C91829F080E80E0811D890F1124F9
:102020004F3FD1F04423A9F04F5F662321F0649F16
:10203000060E60E0611D772321F0749F070E70E0AB
:10204000711D882321F0849F080E80E0811D1124DA
:10205000089580E070E060E0089542E050E06EEAAC
:1020600071E089E293E00C943001FC018081918160
:10207000009711F00C94841A08950E94CA1B0F93C4
:102080001F93CF93DF93EC0188819981009759F0DA
:102090002A813B812617370730F081E0DF91CF910D
:1020A0001F910F9108958B016F5F7F4F0E940D1B51
:1020B000009759F0998388831B830A832C813D8183
:1020C000232B59F7FC011082E8CF80E0E7CFEF9295
:1020D000FF920F931F93CF93DF93EC017B01198243
:1020E00018821B821A821D821C82FB010190002033
:1020F000E9F731978F01061B170BB8010E943F10BB
:1021000028813981811113C02115310519F0C901C8
:102110000E94841A198218821D821C821B821A82D4
:10212000DF91CF911F910F91FF90EF9008951D8344
:102130000C83B701C901DF91CF911F910F91FF90DF
:10214000EF900C94E11BEF92FF920F931F93CF93AC
:10215000DF936115710541F480E0DF91CF911F910C
:102160000F91FF90EF90089541155105B1F07B015B
:10217000EC010C811D81040F151FB8010E943F1056
:10218000882351F3288139818C819D81B701820F89
:10219000931F0E94E11B1D830C8381E0DECF41E091
:1021A00050E061EB71E08CEC93E00C94A3100F9382
:1021B0001F93CF93DF93CDB7DEB728970FB6F89470
:1021C000DEBF0FBECDBF4AE08E010F5F1F4FB801CB
:1021D0000E94EC18F80101900020E9F73197AF0157
:1021E000401B510BB8018CEC93E00E94A310289681
:1021F0000FB6F894DEBF0FBECDBFDF91CF911F9118
:102200000F9108951F920F920FB60F9211242F93E2
:102210003F938F939F93AF93BF93809125039091AA
:102220002603A0912703B09128033091200323E0D7
:10223000230F2D3758F50196A11DB11D20932003C2
:102240008093250390932603A0932703B09328033C
:102250008091210390912203A0912303B091240344
:102260000196A11DB11D8093210390932203A09399
:102270002303B0932403BF91AF919F918F913F911E
:102280002F910F900FBE0F901F90189526E8230FE7
:102290000296A11DB11DD2CF1F920F920FB60F92C1
:1022A00011242F933F934F935F936F937F938F935B
:1022B0009F93AF93BF93EF93FF9389E293E00E94C4
:1022C000EE01FF91EF91BF91AF919F918F917F911F
:1022D0006F915F914F913F912F910F900FBE0F9093
:1022E0001F9018951F920F920FB60F9211242F93E3
:1022F0008F939F93EF93FF93E0913903F0913A030B
:102300008081E0913F03F091400382FD1BC09081EA
:10231000809142038F5F8F7320914303821741F0B6
:10232000E0914203F0E0E75DFC4F958F809342031C
:10233000FF91EF919F918F912F910F900FBE0F9072
:102340001F9018958081F4CF8F929F92AF92BF9289
:10235000CF92DF92EF92FF920F931F93CF93DF9371
:10236000CDB7DEB7DC01FB016081718182816D93A5
:102370007D938C931297FA0140815181628113966B
:102380004D935D936C931597F901208131814281C2
:1023900016962D933D934C931897F8012081318127
:1023A000428119962D933D934C931B97F701208101
:1023B000318142811C962D933D934C931E97F601DB
:1023C0002081318142811F962D933D934C935197EB
:1023D000F50120813181428152962D933D934C939A
:1023E0005497F40120813181428155962D933D937C
:1023F0004C935797EF85F889208131814281589617
:102400002D933D934C935A97E989FA892081318124
:1024100042815B962D933D934C935D97EB89FC89AC
:102420002081318142815E962D933D934C9390970C
:10243000ED89FE8920813181428191962D933D93D2
:102440004C939397EF89F88D208131814281949646
:102450002D933D934C939697E98DFA8D2081318190
:10246000428197962D933D934C939997EB8DFC8DDC
:102470002081318142819A962D933D934C939C9774
:10248000ED8DFE8D2081318142819D962D933D936E
:102490004C93DF91CF911F910F91FF90EF90DF90C0
:1024A000CF90BF90AF909F908F9008952F923F92C2
:1024B0004F925F927F928F929F92AF92BF92CF92F4
:1024C000DF92EF92FF920F931F93CF93DF93CDB7DD
:1024D000DEB7EC970FB6F894DEBF0FBECDBFE9E2D2
:1024E000F3E01382128288EE93E0A0E0B0E08483F0
:1024F0009583A683B78380EA91E09183808385ECFE
:1025000090E09587848784EC90E09787868780ECBD
:1025100090E0918B808B81EC90E0938B828B82ECAE
:1025200090E0958B848B86EC90E0978B868B118E58
:10253000128E138E148E63EB71E082EC94E00E9495
:10254000671065EB71E088EC94E00E94671067EB20
:1025500071E08EEC94E00E94671069EB71E084ED0D
:1025600094E00E9467106BEB71E08AED94E00E94AA
:10257000671077247A947EA67FA678AA7BA67CA68D
:102580007DA678A679A67AA67DA27EA27FA27AA24F
:102590007BA27CA27F8E78A279A27C8E7D8E7E8E9D
:1025A000798E7A8E7B8E7E8A7F8A788E7B8A7C8AF1
:1025B0007D8A788A798A7A8A7D867E867F867A86FF
:1025C0007B867C867F82788679867C827D827E820D
:1025D00079827A827B822E018EE2480E511C5F92B4
:1025E0004F92CE018B969AAB89AB9F938F931E012E
:1025F00098E2290E311C3F922F92CE0185969CAB1A
:102600008BAB9F938F9303979EAB8DAB9F938F93D1
:10261000039798AF8FAB9F938F9303979AAF89AF30
:102620009F938F9303979CAF8BAF9F938F93039749
:102630004C0103975C0103976C0103977C018E01A9
:10264000065F1F4F9E01295F3F4FAE014C5F5F4FFA
:10265000BE016F5F7F4F82ED93E00E94A4117EA6C2
:102660007FA678AA7BA67CA67DA678A679A67AA660
:102670007DA27EA27FA27AA27BA27CA27F8E78A27C
:1026800079A27C8E7D8E7E8E798E7A8E7B8E7E8AEE
:102690001F8A188E7B8A1C8A1D8A788A198A1A8A50
:1026A0007D867E867F867A867B867C867F8278861C
:1026B00079867C827D827E8279827A827B825F9239
:1026C0004F929AA99F9389A98F933F922F929CA989
:1026D0009F938BA98F939EA99F938DA98F9398AD5C
:1026E0009F938FA98F939AAD9F9389AD8F939CAD44
:1026F0009F938BAD8F939E01295F3F4FAE014C5F3F
:102700005F4FBE016F5F7F4F82E094E00E94A41193
:102710007EA67FA678AA7BA67CA67DA678A679A6AB
:102720007AA67DA27EA27FA27AA27BA27CA27F8EC5
:1027300078A279A27C8E7D8E7E8E798E7A8E7B8E2B
:102740001E8A7F8A188E1B8A7C8A1D8A188A798A3B
:102750001A8A7D867E867F867A867B867C867F82C5
:10276000788679867C827D827E8279827A827B827B
:102770000FB6F894DEBF0FBECDBF5F924F929AA9FD
:102780009F9389A98F933F922F929CA99F938BA986
:102790008F939EA99F938DA98F9398AD9F938FA997
:1027A0008F939AAD9F9389AD8F939CAD9F938BAD83
:1027B0008F939E01295F3F4FAE014C5F5F4FBE017B
:1027C0006F5F7F4F82E394E00E94A4117EA67FA6F4
:1027D00078AA7BA67CA67DA678A679A67AA67DA2F5
:1027E0007EA27FA27AA27BA27CA27F8E78A279A20F
:1027F0007C8E7D8E7E8E798E7A8E7B8E1E8A1F8A4F
:10280000788E1B8A1C8A7D8A188A198A7A8A7D8624
:102810007E867F867A867B867C867F8278867986AE
:102820007C827D827E8279827A827B825F924F92E5
:102830009AA99F9389A98F933F922F929CA99F93C6
:102840008BA98F939EA99F938DA98F9398AD9F93EA
:102850008FA98F939AAD9F9389AD8F939CAD9F93D2
:102860008BAD8F939E01295F3F4FAE014C5F5F4F51
:10287000BE016F5F7F4F82E694E00E94A4117EA6A6
:102880007FA678AA7BA67CA67DA678A679A67AA63E
:102890007DA27EA27FA27AA27BA27CA27F8E78A25A
:1028A00079A27C8E7D8E7E8E798E7A8E7B8E7E8ACC
:1028B0001F8A788E7B8A1C8A7D8A788A198A7A8A0E
:1028C0007D867E867F867A867B867C867F827886FA
:1028D00079867C827D827E8279827A827B820FB643
:1028E000F894DEBF0FBECDBF5F924F929AA99F931F
:1028F00089A98F933F922F929CA99F938BA98F9325
:102900009EA99F938DA98F9398AD9F938FA98F9325
:102910009AAD9F9389AD8F939CAD9F938BAD8F9311
:102920009E01295F3F4FAE014C5F5F4FBE016F5F5D
:102930007F4F82E994E00E94A41160EB71E08CEC7F
:1029400093E00E94671060EB71E086EC93E00E94D8
:102950006710E0EEF4E07082128211821486138612
:102960008FEF9FEFDC0187839087A187B287138267
:102970001482158216820FB6F894DEBF0FBECDBF4B
:10298000EC960FB6F894DEBF0FBECDBFDF91CF91AE
:102990001F910F91FF90EF90DF90CF90BF90AF907D
:1029A0009F908F907F905F904F903F902F900895D1
:1029B000CF93DF93CDB7DEB72E970FB6F894DEBF77
:1029C0000FBECDBF789484B5826084BD84B581602C
:1029D00084BD85B5826085BD85B5816085BD8091EA
:1029E0006E00816080936E00109281008091810062
:1029F000826080938100809181008160809381005A
:102A0000809180008160809380008091B10084601B
:102A10008093B1008091B00081608093B00080917C
:102A20007A00846080937A0080917A00826080933B
:102A30007A0080917A00816080937A0080917A0098
:102A4000806880937A001092C100E0913903F09180
:102A50003A0382E08083E0913503F09136031082DF
:102A6000E0913703F091380380E1808310924103B5
:102A7000E0913D03F0913E0386E08083E0913B03CB
:102A8000F0913C03808180618083E0913B03F09171
:102A90003C03808188608083E0913B03F0913C039C
:102AA000808180688083E0913B03F0913C038081CA
:102AB0008F7D80838091E401811111C08CEC91E0C5
:102AC0000E948D0F1092E3011092E2018EE191E0DD
:102AD0009093CD018093CC0181E08093E4016CE67A
:102AE00072E08CEC91E00E948300809104028111DD
:102AF00011C08CEE91E00E948D0F10920302109293
:102B0000020284E391E09093ED018093EC0181E077
:102B10008093040264E872E08CEE91E00E948300EE
:102B200080912402811111C08CE092E00E948D0FEF
:102B300010922302109222028AE491E090930D02F7
:102B400080930C0281E0809324026CE972E08CE0B7
:102B500092E00E94830080914402811111C08CE2B6
:102B600092E00E948D0F109243021092420280E682
:102B700091E090932D0280932C0281E08093440297
:102B800064EB72E08CE292E00E9483008091640228
:102B9000811111C08CE492E00E948D0F10926302AB
:102BA0001092620286E791E090934D0280934C026E
:102BB00081E0809364026CEC72E08CE492E00E940D
:102BC000830060EB71E0CE0101960E9467100E94C5
:102BD000800197FD0CC08F83188641E050E0BE0154
:102BE000695F7F4FCE0101960E94A310F0CF8D81C7
:102BF0009E81892B09F4F4C06DEB71E089819A8183
:102C00000E94D81B892B09F0EBC046E050E060EC35
:102C100071E089E293E00E9430010E942D108AE069
:102C20008093E004CE0101960E94351070E060E0D0
:102C30008CEC93E00E943F102091CC033091CD03A7
:102C40008111D9C02115310519F0C9010E94841ADA
:102C50001092CD031092CC031092D1031092D003A6
:102C60001092CF031092CE0302E911E086E1682EA4
:102C700083E0782E7301D8018C910E5F1F4F0E9464
:102C8000C400EFEFF3E0E81BF90BD701ED93FD93E0
:102C90007D01B1E00C391B0771F783E10E94C4008C
:102CA00085E10E94C40084E10E94C400A8E8B1E06C
:102CB00021E133E03B872A87A9018D919D919927D6
:102CC000FC01E656FF4F3491FC01EA57FF4F249177
:102CD000FC01EE58FF4FE491EE23C9F0332359F085
:102CE000333009F49DC008F090C0313009F49EC023
:102CF000323009F49FC0F0E0EE0FFF1FE859FF4F9C
:102D000065917491FB018081282381E009F480E0C2
:102D10008170FA018193AF01F1E0A239BF0709F098
:102D2000CCCF67E0E62E63E0F62E72ED472E73E01F
:102D3000572E312C212CD3012D913C91FD86EC8610
:102D4000F70180819181A901481B590BCA0157FFE6
:102D500003C091958195910904970CF41AC22D3FF7
:102D600053E035070CF473C0EFEFF3E0D301ED93BC
:102D7000FC93F301808191811092E5021092E402AC
:102D80009C01220F232F221F330B60E870E00E946A
:102D90009419880F8E87D12CC12C198657E0A52E47
:102DA000B12CA21AB108F8E1F29D4001F39D900CFC
:102DB00011248601000F111FAC14BD0409F04FC08F
:102DC0000A0D1B1D080D191D04591D4F4E856985DF
:102DD000C2010E94D30FD8016D937D938C9352C092
:102DE00068EC70E080E090E00E94FE00CE01019669
:102DF0000E943510E6CE1092D1031092D00360EB02
:102E000071E0C9010E94E11B2FCF3730B1F038309B
:102E1000D1F0343009F06FCF809180008F7D03C0F6
:102E2000809180008F778093800065CF84B58F7705
:102E300084BD61CF84B58F7DFBCF8091B0008F774B
:102E40008093B00058CF8091B0008F7DF9CF2330B0
:102E500031050CF08ECFD3011D921C928ACF0C0D40
:102E60001D1D080D191D04591D4FAC14BD040CF097
:102E700093C04FEF6985C2010E94D30FF8016083B0
:102E800071838283BFEFCB1ADB0AE985E05FE987B4
:102E9000E03809F08ECF9090E0048091E3049091A7
:102EA000E404A091E504B091E604892B8A2B8B2BD6
:102EB000D9F00E94D9000091FE021091FF022091EA
:102EC000000330910103601B710B820B930B009187
:102ED000E3041091E4042091E5043091E6046017C6
:102EE000710782079307C8F20E94D9006093FE021F
:102EF0007093FF028093000390930103E091EB0431
:102F0000F091EC04309759F04091E7045091E804B7
:102F10006091E9047091EA04892D0995982E009139
:102F2000FC021091FD029CEEC92E92E0D92E5601B2
:102F30000115110599F12CEF32E02A153B0571F1CD
:102F4000D801ED91FC910284F385E02DC80109952B
:102F5000F501819391935F018091E1049091E204E6
:102F60008436910518F4D8011C961C92F8018585C9
:102F7000882369F046855785628173810190F081CD
:102F8000E02D0280F381E02D292DC8010995D8019B
:102F900014960D911C91CCCF40E019CF0091FC020A
:102FA0001091FD0201151105A9F0ECEFF2E0EC150E
:102FB000FD0581F0D6016D917D916D01D801ED91F6
:102FC000FC910484F585E02DC8010995F801048180
:102FD0001581E8CF8091EA029091EB029C012F5F6E
:102FE0003F4F3093EB022093EA0249970CF44AC01A
:102FF0008FB7F89420912503309126034091270341
:10300000509128038FBF8091E6029091E702A09132
:10301000E802B091E902281B390B4A0B5B0B21F443
:1030200021E030E040E050E08091EA029091EB0234
:10303000A8EEB3E08A9FB0018B9F700D9A9F700D30
:103040001124072E000C880B990B0E942119309334
:10305000E2042093E1041092EB021092EA022FB7EF
:10306000F8948091250390912603A0912703B091B5
:1030700028032FBF8093E6029093E702A093E80213
:10308000B093E902F301219131913F01F2E0EF0E9B
:10309000F11CAC85BD858D919C91F901E81BF90B64
:1030A000CF01F7FF03C0919581959109049784F0B2
:1030B000D7013E932E938D01C1010E94D7100E942B
:1030C000CF10F801808191810E94D7100E94CF100B
:1030D000FFEF2F1A3F0A20E3420E511C35E0231662
:1030E000310409F028CE82E0E82E83E0F82E02ECCD
:1030F00014E0AA85BB85DD90BB87AA87F701819183
:103100007F01D816A9F03197D082D80114964D913D
:103110005C9115976D917C918CEC93E00E94A310CB
:103120000E94CF108D2D90E00E94D7100E94CF10EA
:103130000A5F1F4FE6E1F3E02A853B85E217F307BC
:10314000C1F64091D0035091D1034115510571F062
:103150006091CC037091CD03DB018C91882331F019
:1031600089E293E00E9430010E942D1064E170E03A
:1031700080E090E00E94FE0080E090E0892B09F45E
:1031800055CD0E94DA01882309F450CD0E94000039
:103190004DCDB2E06B0E711CE2E0EE0EF11C98CF4B
:1031A00086EC93E00E9435108CEC93E00E94351081
:1031B0008AED94E00E94351084ED94E00E94351071
:1031C0008EEC94E00E94351088EC94E00E9435105B
:1031D00082EC94E00C943510BB274A3031F49923EB
:1031E00022F4BDE2909581959F4F0C94F818BB276F
:1031F000FB015527AA27880F991FAA1FA41710F0B3
:10320000A41B83955051B9F7A05DAA3308F0A95DBE
:10321000A193009779F7B111B1931192CB010C945E
:103220001119DC01FC01672F71917723E1F73297C7
:1032300004C07C916D9370836291AE17BF07C8F391
:103240000895A1E21A2EAA1BBB1BFD010DC0AA1FE7
:10325000BB1FEE1FFF1FA217B307E407F50720F0FF
:10326000A21BB30BE40BF50B661F771F881F991F7A
:103270001A9469F760957095809590959B01AC01C3
:10328000BD01CF0108950E948519A59F900DB49F9F
:10329000900DA49F800D911D112408952F923F92AF
:1032A0004F925F926F927F928F929F92AF92BF9256
:1032B000CF92DF92EF92FF920F931F93CF93DF9302
:1032C000CDB7DEB7CA1BDB0B0FB6F894DEBF0FBE5F
:1032D000CDBF09942A88398848885F846E847D84AC
:1032E0008C849B84AA84B984C884DF80EE80FD80AE
:1032F0000C811B81AA81B981CE0FD11D0FB6F89424
:10330000DEBF0FBECDBFED010895A29FB001B39FF8
:10331000C001A39F700D811D1124911DB29F700DDE
:10332000811D1124911D089597FB072E16F400941A
:1033300007D077FD09D00E94CE1907FC05D03EF4D6
:10334000909581959F4F0895709561957F4F089551
:10335000052E97FB1EF400940E94BF1957FD07D05D
:103360000E94211907FC03D04EF40C94BF1950950C
:103370004095309521953F4F4F4F5F4F0895909561
:103380008095709561957F4F8F4F9F4F08950E9454
:103390008519B7FF0895821B930B0895AA1BBB1BC9
:1033A00051E107C0AA1FBB1FA617B70710F0A61B45
:1033B000B70B881F991F5A95A9F780959095BC0166
:1033C000CD010895EE0FFF1F0590F491E02D0994B3
:1033D0000F931F93CF93DF938230910510F482E017
:1033E00090E0E091EF04F091F00430E020E0B0E0F4
:1033F000A0E0309799F42115310509F44AC0281B43
:10340000390B24303105D8F58A819B81611571050E
:1034100089F1FB0193838283FE0111C040815181B8
:103420000281138148175907E0F04817590799F4AA
:10343000109761F012960C93129713961C93329684
:10344000CF01DF91CF911F910F9108950093EF0469
:103450001093F004F4CF2115310551F042175307B2
:1034600038F0A901DB019A01BD01DF01F801C1CFEC
:10347000EF01F9CF9093F0048093EF04CDCFFE01DC
:10348000E20FF31F819391932250310939832883EE
:10349000D7CF2091ED043091EE04232B41F42091FD
:1034A0000201309103013093EE042093ED0420914A
:1034B0000001309101012115310541F42DB73EB7CE
:1034C0004091040150910501241B350BE091ED045E
:1034D000F091EE04E217F307A0F42E1B3F0B281720
:1034E000390778F0AC014E5F5F4F2417350748F07D
:1034F0004E0F5F1F5093EE044093ED048193919320
:103500009FCFF0E0E0E09CCFCF93DF930097E9F00E
:10351000FC01329713821282A091EF04B091F00463
:10352000ED0130E020E01097A1F420813181820F7D
:10353000931F2091ED043091EE042817390709F00C
:1035400061C0F093EE04E093ED04DF91CF91089514
:10355000EA01CE17DF07E8F54A815B819E0141153C
:103560005105B1F7E901FB83EA8349915991C40FF1
:10357000D51FEC17FD0761F4808191810296840FBD
:10358000951FE90199838883828193819B838A8334
:10359000F0E0E0E012968D919C9113970097B9F5B9
:1035A0002D913C911197CD010296820F931F20918E
:1035B000ED043091EE042817390739F6309751F5AC
:1035C0001092F0041092EF04B093EE04A093ED0477
:1035D000BCCFD383C28340815181840F951FC8170C
:1035E000D90761F44E5F5F4F88819981480F591F59
:1035F000518340838A819B81938382832115310586
:1036000009F0B0CFF093F004E093EF049ECFFD01FA
:10361000DC01C0CF13821282D7CFB0E0A0E0E3E19B
:10362000FBE10C9450198C01009751F4CB010E94DE
:10363000E8198C01C801CDB7DEB7E0E10C946C1934
:10364000FC01E60FF71F9C0122503109E217F30736
:1036500008F49DC0D901CD91DC911197C617D70709
:1036600098F0C530D10530F3CE010497861797073F
:1036700008F3C61BD70B2297C193D1936D937C930C
:10368000CF010E94841AD6CF5B01AC1ABD0A4C014F
:103690008C0E9D1EA091EF04B091F004512C412C92
:1036A000F12CE12C109731F58091ED049091EE040E
:1036B0008815990509F05CC04616570608F058C0F1
:1036C0008091000190910101009741F48DB79EB760
:1036D0004091040150910501841B950BE817F907EF
:1036E00008F055C0F093EE04E093ED04F901718306
:1036F0006083A0CF8D919C91119712966C90129738
:1037000013967C901397A815B90559F56C0142E002
:10371000C40ED11CCA14DB0420F1AC014A195B09A8
:10372000DA011296159780F062827382518340838A
:10373000D9016D937C93E114F10471F0D7011396D4
:10374000FC93EE93129776CF22968C0F9D1FF90172
:1037500091838083F301EFCFF093F004E093EF04C3
:1037600069CF4816590608F42C017D01D3019ACF80
:10377000CB010E94E8197C01009749F0AE01B80125
:103780000E94CF1BC8010E94841A870153CF10E00A
:1037900000E050CF81E090E0F8940C94E81BFB012E
:1037A000DC0102C001900D9241505040D8F70895BD
:1037B000FB01DC018D91019080190110D9F3990B67
:1037C0000895FB01DC0101900D920020E1F70895BE
:1037D00010E0C8E5D0E004C0FE010E94E219219685
:0A37E000C935D107C9F7F894FFCFEF
:1037EA000000F1048000000000003D103D103D1073
:1037FA00CF0F7D0ECB0FC80FC50F00000000390F89
:10380A00D30E2905CF0F7D0ECB0FC80F2605D30285
:10381A0000000000390FD30E7E07CF0F7D0ECB0FAD
:10382A00C80F26052B0500000000390FD30ED30957
:10383A00CF0F7D0ECB0FC80F2605800700000000B2
:10384A00390FD30E280CCF0F7D0ECB0FC80F2605CC
:10385A00D50900000000390FD30E800ECF0F7D0E60
:10386A00CB0FC80F26052A0C06000500040003002A
:10387A0002001200110010000F000E0000000000EC
:10388A00100230015D015D02CE016C01C0010D0A1A
:10389A00007C00410042004300440045003F0A000A
:0838AA006D69786C697400007F
:00000001FF
